:020000040000FA
:10000000012883168501851505168601870188015B
:1000100007148714071507309F0009128312850102
:100020008701880186018E018F019C0141200718FC
:1000300022288B22073003100E0203183D280130BE
:100040008E073A28412087182E288B22063003106D
:100050000E0203183D2802308E073A284120071966
:1000600016288B22053003100E0203183D28053098
:100070008E073A280E088800162887178B228713C8
:1000800016285420851908008B2201308F0749203B
:100090005128053003100F02031C08008F01850151
:1000A00008000F0888004128051A08000E089C0067
:1000B0000E08031001300E02031C16280311013034
:1000C0000F02031D652887158828031002300E02D1
:1000D000031C1628031102300F02031D7128871616
:1000E0008828031003300E02031C16280311033066
:1000F0000F02031D7D2807178828031004300E0205
:10010000031C1628031104300F02031D7128071663
:1001100003110F080E028E0087170E0888009C221C
:100120009C229C229E200F280800B821AB309021F1
:100130008B22B8210D309E218B220800B821463039
:1001400090210800B821563090210800B82167306E
:10015000902108008207433441344634453420342A
:100160005034553452344F342034313420344234F6
:10017000733420342034203420342034203420348C
:1001800020342034203420342034203420342034CF
:1001900020342034203420342034203420342034BF
:1001A00020342034203420342034203420342034AF
:1001B000203420342034203420342034203420349F
:1001C000203420342034203420342034203420348F
:1001D00020342034203452344534433449344234BA
:1001E00041342034533455342034433441344D3475
:1001F000423449344F3420342034203420342034E5
:10020000203420342034203420342034203420344E
:10021000203420342034203400342034203420345E
:10022000203420342034203420342034203420342E
:1002300020342034203420342034203450345234BC
:10024000453450344134523441344E3444344F34C4
:100250002E342E342E34203420344734523441345A
:1002600043344934413453342E34203456345534D5
:1002700045344C34563441342034503452344F34A5
:100280004E3454344F3420342034592843344134CC
:1002900046344534203443342F344C3445344334CD
:1002A00048342034323420344234733443344134BB
:1002B000463445342034453458345034523445346F
:1002C0005334203433342034423473345928433483
:1002D0004134503455344334433449344E344F342C
:1002E00020343434203442347334203420342034E5
:1002F000203420342034203420342034203420345E
:10030000203420342034203420342034203420344D
:10031000203420342034203420342034203420343D
:100320008000AA30800280030008AA208100810892
:1003300003199D290122800A942908008000AA300F
:10034000800280038201FC2110300202031DAD29CE
:100350005B225B220F308002A2290008AA208100C4
:1003600081080319B7290122820A800AA4290800FA
:10037000831605100511851007309F008312851024
:100380000511051061223030D42165223030D4218E
:100390004E223030D42156222030D4215622FE2144
:1003A000FC21FA21E8210800F039830006080F3902
:1003B00083048316060885000F3086058312030820
:1003C00086000515051183160508860083120800AE
:1003D0000630FF298030FF29C030FF299430FF29E3
:1003E000D430FF298038FF29C038FF290830FF2981
:1003F0000E30FF290C30FF290130FF29283005106D
:10040000032A05140B228400D421040ED421051CD8
:100410006722532208008300F13C031D122AEE30AC
:1004200083001F2A0308D13C031D192AEE308300E4
:100430001F2A0308BA3C031D1F2ADF30830003086C
:1004400008001030282A0130282A0230282A0330D8
:10045000860020300122860B292A08008700F03907
:10046000031D362A20300122382A8700070E392240
:1004700007080F398600093C031C412A0608303E54
:10048000432A0608373E012A000000000000000051
:100490000000000008000000A430572A000040308F
:1004A000572A1F30572A00000E30572A053088007F
:1004B000880B582A0800C8306A2A64306A2A323009
:1004C0006A2A14306A2A0A306A2A05306A2A0230F7
:1004D0006A2A01308900F93088000000880B6D2AF3
:1004E000890B6B2A0800C8307E2A64307E2A32309D
:1004F0007E2A14307E2A0A307E2A05308A00643033
:100500008900F93088000000880B832A890B812A32
:100510008A0B7F2A0800FF308C00FF309C009C0370
:10052000003003111C02031D8F2A8C0300300311BD
:0E0530000C02031D8D2A08008B228B2208006E
:02400E00BB3FB6
:00000001FF
