:020000040000FA
:1000000083168601061486140615861583120618B3
:100010000A28142086180D281D20061910282120D2
:10002000861907282520132839212A301121162264
:1000300039218C301F21162208003921C5301121A9
:1000400008003921D530112108003921E83011216B
:100050000800820743344134463445342034503458
:10006000553452344F3420343134203442347334D4
:1000700020342034203420342034203420342034E0
:1000800020342034203420342034203420342034D0
:1000900020342034203420342034203420342034C0
:1000A00020342034203420342034203420342034B0
:1000B00020342034203420342034203420342034A0
:1000C0002034203420342034203420342034203490
:1000D000203420345234453443344934423441349A
:1000E0002034533455342034433441344D34423475
:1000F00049344F3420342034203420342034203408
:10010000203420342034203420342034203420344F
:10011000203420342034003420342034203420345F
:10012000203420342034203420342034203420342F
:100130002034203420342034203450345234453498
:1001400050344134523441344E3444344F342E34DC
:100150002E342E3420342034473452344134433446
:100160004934413453342E342034563455344534D4
:100170004C34563441342034503452344F344E349D
:1001800054344F3420342034072843344134463427
:100190004534203443342F344C34453443344834CC
:1001A00020343234203442347334433441344634BE
:1001B0004534203445345834503452344534533463
:1001C00020343334203442347334860185010728C7
:1001D00043344134503455344334433449344E3439
:1001E0004F342034343420344234733420342034B7
:1001F000203420342034203420342034203420345F
:10020000203420342034203420342034203420344E
:10021000203420342034203420342034203420343E
:1002200020348C0029308C028C030C0829208D008E
:100230008D0803191E2980218C0A152908008C00BD
:1002400029308C028C038E017B2110300E02031D9D
:100250002E29DA21DA210F308C0223290C082920DB
:100260008D008D080319382980218E0A8C0A2529D2
:1002700008008316051005118510831285100511DD
:100280000510E02130305321E42130305321CD21BD
:1002900030305321D52120305321D5217D217B21A0
:1002A000792167210800F0398F0006080F398F0483
:1002B0008316060891000F30860583120F0886000A
:1002C00005150511831611088600831208000630F3
:1002D0007E2980307E29C0307E2994307E29D4301A
:1002E0007E2980387E29C0387E2908307E290E304C
:1002F0007E290C307E2901307E2928300510822984
:1003000005148A2190005321100E5321051CE6216B
:10031000D22108008F00F13C031D9129EE308F009F
:100320009E290F08D13C031D9829EE308F009E298D
:100330000F08BA3C031D9E29DF308F000F0808000C
:100340001030A7290130A7290230A72903309200D5
:1003500020308021920BA82908009300F039031D5A
:10036000B52920308021B7299300130EB821130836
:100370000F399200093C031CC0291208303EC229E3
:100380001208373E80290000000000000000000035
:10039000000008000000A430D62900004030D62913
:1003A0001F30D62900000E30D62905309400940B5A
:1003B000D7290800C830E9296430E9293230E92911
:1003C0001430E9290A30E9290530E9290230E92900
:1003D00001309500F93094000000940BEC29950B46
:1003E000EA290800C830FD296430FD293230FD2992
:1003F0001430FD290A30FD2905309600643095003F
:10040000F93094000000940B022A950B002A960BF9
:10041000FE290800FD308C00FD309C006400640063
:100420009C0B0E2A8C0B0C2A152A08000A220A2281
:0A0430000A220A220A220A2208000A
:02400E00F13F80
:00000001FF
