:020000040000FA
:1000000007309F003A210C301221172217223A2183
:100010006E302021082882074A34553441344E344A
:1000200020344C34553449345334203446344C3421
:100030004F34523445345334203420342034203467
:100040002034203420342034203420342034203410
:100050002034203420342034203420342034203400
:1000600020342034203420342034203420342034F0
:1000700020342034203420342034203420342034E0
:1000800020342034203420342034203420342034D0
:10009000203420342034203443342E3449343A344C
:1000A0003534313439343034343437343434203422
:1000B0004334423442344134203420342034203418
:1000C0002034203420342034203420342034203490
:1000D00020342034203420342034003420342034A0
:1000E0002034203420342034203420342034203470
:1000F0002034203420342034203420342034503430
:100100005234413443345434493443344134203438
:100110004434453420344C34413442344F34523426
:10012000413454344F34523449344F3420347E34C3
:100130003E342034533449345334543445344D34EC
:1001400041345334203445344C34453443345434EE
:1001500052344F344E34493443344F3453342034C2
:100160007E343E34203449344E3447342E342034E7
:100170004D34453443344134543452344F344E3486
:10018000493443344134203455342E3443342E34EE
:100190004234203443346F3463346834613462341D
:1001A00061346D3462346134203420347E343E3422
:1001B0003E343E3420344C34753469347334203446
:1001C00046346C346F3472346534733420345034B4
:1001D0006F347A346F3420347E343E343E343E34CF
:1001E0002034203420345B34303436342F343034EF
:1001F00035342F3432343034313431345D342034BA
:10020000203420342034203420342034203420344E
:10021000203420342034203420342034203420343E
:10022000203400348C000B308C028C030C080B2023
:100230008D008D0803191F2981218C0A16290800B9
:100240008C000B308C028C038E017C2110300E024E
:10025000031D2F29DB21DB210F308C0224290C0800
:100260000B208D008D080319392981218E0A8C0AF3
:1002700026290800831606100611861083128610A0
:1002800006110610E12130305421E521303054218F
:10029000CE2130305421D62120305421D6217E2148
:1002A0007C217A2168210800F0398F0006080F3977
:1002B0008F048316060891000F30860583120F08FD
:1002C00086000615061183161108860083120800A1
:1002D00006307F2980307F29C0307F2994307F29E4
:1002E000D4307F2980387F29C0387F2908307F2982
:1002F0000E307F290C307F2901307F2928300610ED
:10030000832906148B2190005421100E5421061CC1
:10031000E721D32108008F00F13C031D9229EE3024
:100320008F009F290F08D13C031D9929EE308F00C3
:100330009F290F08BA3C031D9F29DF308F000F084B
:1003400008001030A8290130A8290230A82903305C
:10035000920020308121920BA92908009300F039E6
:10036000031DB62920308121B8299300130EB9212D
:1003700013080F399200093C031CC1291208303EB2
:10038000C3291208373E8129000000000000000048
:100390000000000008000000A430D7290000403011
:1003A000D7291F30D72900000E30D72905309400F7
:1003B000940BD8290800C830EA296430EA29323081
:1003C000EA291430EA290A30EA290530EA290230FC
:1003D000EA2901309500F93094000000940BED29D2
:1003E000950BEB290800C830FE296430FE29323015
:1003F000FE291430FE290A30FE29053096006430AB
:100400009500F93094000000940B032A950B012A03
:10041000960BFF290800FD308C00FD309C00640025
:1004200064009C0B0F2A8C0B0D2A162A08000B2245
:0C0430000B220B220B220B220B220800D7
:02400E00BB3FB6
:00000001FF
